{
  "_format": "hh-sol-artifact-1",
  "contractName": "BookDatabase",
  "sourceName": "contracts/BookDataBase.sol",
  "abi": [
    {
      "inputs": [],
      "stateMutability": "nonpayable",
      "type": "constructor"
    },
    {
      "inputs": [
        {
          "components": [
            {
              "internalType": "string",
              "name": "title",
              "type": "string"
            },
            {
              "internalType": "uint16",
              "name": "year",
              "type": "uint16"
            }
          ],
          "internalType": "struct BookDatabase.Book",
          "name": "newBook",
          "type": "tuple"
        }
      ],
      "name": "addBook",
      "outputs": [],
      "stateMutability": "nonpayable",
      "type": "function"
    },
    {
      "inputs": [
        {
          "internalType": "uint32",
          "name": "",
          "type": "uint32"
        }
      ],
      "name": "books",
      "outputs": [
        {
          "internalType": "string",
          "name": "title",
          "type": "string"
        },
        {
          "internalType": "uint16",
          "name": "year",
          "type": "uint16"
        }
      ],
      "stateMutability": "view",
      "type": "function"
    },
    {
      "inputs": [
        {
          "internalType": "string",
          "name": "str1",
          "type": "string"
        },
        {
          "internalType": "string",
          "name": "str2",
          "type": "string"
        }
      ],
      "name": "compare",
      "outputs": [
        {
          "internalType": "bool",
          "name": "",
          "type": "bool"
        }
      ],
      "stateMutability": "pure",
      "type": "function"
    },
    {
      "inputs": [],
      "name": "count",
      "outputs": [
        {
          "internalType": "uint32",
          "name": "",
          "type": "uint32"
        }
      ],
      "stateMutability": "view",
      "type": "function"
    },
    {
      "inputs": [
        {
          "internalType": "uint32",
          "name": "id",
          "type": "uint32"
        },
        {
          "components": [
            {
              "internalType": "string",
              "name": "title",
              "type": "string"
            },
            {
              "internalType": "uint16",
              "name": "year",
              "type": "uint16"
            }
          ],
          "internalType": "struct BookDatabase.Book",
          "name": "newBook",
          "type": "tuple"
        }
      ],
      "name": "editBook",
      "outputs": [],
      "stateMutability": "nonpayable",
      "type": "function"
    },
    {
      "inputs": [
        {
          "internalType": "uint32",
          "name": "id",
          "type": "uint32"
        }
      ],
      "name": "removeBook",
      "outputs": [],
      "stateMutability": "nonpayable",
      "type": "function"
    }
  ],
  "bytecode": "0x60a060405260008060006101000a81548163ffffffff021916908363ffffffff160217905550348015603057600080fd5b503373ffffffffffffffffffffffffffffffffffffffff1660808173ffffffffffffffffffffffffffffffffffffffff1681525050608051610f6561008060003960006103470152610f656000f3fe608060405234801561001057600080fd5b50600436106100625760003560e01c806306661abd146100675780633a96fdd71461008557806368d748ca146100b5578063b19a4635146100e6578063e9e7ff0c14610102578063feaeb5ab1461011e575b600080fd5b61006f61013a565b60405161007c91906106c8565b60405180910390f35b61009f600480360381019061009a919061083d565b610150565b6040516100ac91906108d0565b60405180910390f35b6100cf60048036038101906100ca9190610917565b610183565b6040516100dd9291906109e0565b60405180910390f35b61010060048036038101906100fb9190610ab2565b61023d565b005b61011c60048036038101906101179190610917565b61032e565b005b61013860048036038101906101339190610afb565b610485565b005b600260009054906101000a900463ffffffff1681565b600080839050600083905080518251148015610179575080805190602001208280519060200120145b9250505092915050565b60016020528060005260406000206000915090508060000180546101a690610b86565b80601f01602080910402602001604051908101604052809291908181526020018280546101d290610b86565b801561021f5780601f106101f45761010080835404028352916020019161021f565b820191906000526020600020905b81548152906001019060200180831161020257829003601f168201915b5050505050908060010160009054906101000a900461ffff16905082565b60008081819054906101000a900463ffffffff168092919061025e90610be6565b91906101000a81548163ffffffff021916908363ffffffff1602179055505080600160008060009054906101000a900463ffffffff1663ffffffff1663ffffffff16815260200190815260200160002060008201518160000190816102c39190610dc8565b5060208201518160010160006101000a81548161ffff021916908361ffff1602179055509050506002600081819054906101000a900463ffffffff168092919061030c90610be6565b91906101000a81548163ffffffff021916908363ffffffff1602179055505050565b3373ffffffffffffffffffffffffffffffffffffffff167f000000000000000000000000000000000000000000000000000000000000000073ffffffffffffffffffffffffffffffffffffffff16146103bc576040517f08c379a00000000000000000000000000000000000000000000000000000000081526004016103b390610ee6565b60405180910390fd5b6000600160008363ffffffff1663ffffffff16815260200190815260200160002060010160009054906101000a900461ffff1661ffff16111561048257600160008263ffffffff1663ffffffff16815260200190815260200160002060008082016000610429919061064c565b6001820160006101000a81549061ffff021916905550506002600081819054906101000a900463ffffffff168092919061046290610f06565b91906101000a81548163ffffffff021916908363ffffffff160217905550505b50565b6000600160008463ffffffff1663ffffffff1681526020019081526020016000206040518060400160405290816000820180546104c190610b86565b80601f01602080910402602001604051908101604052809291908181526020018280546104ed90610b86565b801561053a5780601f1061050f5761010080835404028352916020019161053a565b820191906000526020600020905b81548152906001019060200180831161051d57829003601f168201915b505050505081526020016001820160009054906101000a900461ffff1661ffff1661ffff1681525050905061057781600001518360000151610150565b15801561059e575061059c826000015160405180602001604052806000815250610150565b155b156105d8578160000151600160008563ffffffff1663ffffffff16815260200190815260200160002060000190816105d69190610dc8565b505b816020015161ffff16816020015161ffff161415801561060057506000826020015161ffff16115b15610647578160200151600160008563ffffffff1663ffffffff16815260200190815260200160002060010160006101000a81548161ffff021916908361ffff1602179055505b505050565b50805461065890610b86565b6000825580601f1061066a5750610689565b601f016020900490600052602060002090810190610688919061068c565b5b50565b5b808211156106a557600081600090555060010161068d565b5090565b600063ffffffff82169050919050565b6106c2816106a9565b82525050565b60006020820190506106dd60008301846106b9565b92915050565b6000604051905090565b600080fd5b600080fd5b600080fd5b600080fd5b6000601f19601f8301169050919050565b7f4e487b7100000000000000000000000000000000000000000000000000000000600052604160045260246000fd5b61074a82610701565b810181811067ffffffffffffffff8211171561076957610768610712565b5b80604052505050565b600061077c6106e3565b90506107888282610741565b919050565b600067ffffffffffffffff8211156107a8576107a7610712565b5b6107b182610701565b9050602081019050919050565b82818337600083830152505050565b60006107e06107db8461078d565b610772565b9050828152602081018484840111156107fc576107fb6106fc565b5b6108078482856107be565b509392505050565b600082601f830112610824576108236106f7565b5b81356108348482602086016107cd565b91505092915050565b60008060408385031215610854576108536106ed565b5b600083013567ffffffffffffffff811115610872576108716106f2565b5b61087e8582860161080f565b925050602083013567ffffffffffffffff81111561089f5761089e6106f2565b5b6108ab8582860161080f565b9150509250929050565b60008115159050919050565b6108ca816108b5565b82525050565b60006020820190506108e560008301846108c1565b92915050565b6108f4816106a9565b81146108ff57600080fd5b50565b600081359050610911816108eb565b92915050565b60006020828403121561092d5761092c6106ed565b5b600061093b84828501610902565b91505092915050565b600081519050919050565b600082825260208201905092915050565b60005b8381101561097e578082015181840152602081019050610963565b60008484015250505050565b600061099582610944565b61099f818561094f565b93506109af818560208601610960565b6109b881610701565b840191505092915050565b600061ffff82169050919050565b6109da816109c3565b82525050565b600060408201905081810360008301526109fa818561098a565b9050610a0960208301846109d1565b9392505050565b600080fd5b600080fd5b610a23816109c3565b8114610a2e57600080fd5b50565b600081359050610a4081610a1a565b92915050565b600060408284031215610a5c57610a5b610a10565b5b610a666040610772565b9050600082013567ffffffffffffffff811115610a8657610a85610a15565b5b610a928482850161080f565b6000830152506020610aa684828501610a31565b60208301525092915050565b600060208284031215610ac857610ac76106ed565b5b600082013567ffffffffffffffff811115610ae657610ae56106f2565b5b610af284828501610a46565b91505092915050565b60008060408385031215610b1257610b116106ed565b5b6000610b2085828601610902565b925050602083013567ffffffffffffffff811115610b4157610b406106f2565b5b610b4d85828601610a46565b9150509250929050565b7f4e487b7100000000000000000000000000000000000000000000000000000000600052602260045260246000fd5b60006002820490506001821680610b9e57607f821691505b602082108103610bb157610bb0610b57565b5b50919050565b7f4e487b7100000000000000000000000000000000000000000000000000000000600052601160045260246000fd5b6000610bf1826106a9565b915063ffffffff8203610c0757610c06610bb7565b5b600182019050919050565b60008190508160005260206000209050919050565b60006020601f8301049050919050565b600082821b905092915050565b600060088302610c747fffffffffffffffffffffffffffffffffffffffffffffffffffffffffffffffff82610c37565b610c7e8683610c37565b95508019841693508086168417925050509392505050565b6000819050919050565b6000819050919050565b6000610cc5610cc0610cbb84610c96565b610ca0565b610c96565b9050919050565b6000819050919050565b610cdf83610caa565b610cf3610ceb82610ccc565b848454610c44565b825550505050565b600090565b610d08610cfb565b610d13818484610cd6565b505050565b5b81811015610d3757610d2c600082610d00565b600181019050610d19565b5050565b601f821115610d7c57610d4d81610c12565b610d5684610c27565b81016020851015610d65578190505b610d79610d7185610c27565b830182610d18565b50505b505050565b600082821c905092915050565b6000610d9f60001984600802610d81565b1980831691505092915050565b6000610db88383610d8e565b9150826002028217905092915050565b610dd182610944565b67ffffffffffffffff811115610dea57610de9610712565b5b610df48254610b86565b610dff828285610d3b565b600060209050601f831160018114610e325760008415610e20578287015190505b610e2a8582610dac565b865550610e92565b601f198416610e4086610c12565b60005b82811015610e6857848901518255600182019150602085019450602081019050610e43565b86831015610e855784890151610e81601f891682610d8e565b8355505b6001600288020188555050505b505050505050565b7f596f7520646f6e27742068617665207065726d697373696f6e00000000000000600082015250565b6000610ed060198361094f565b9150610edb82610e9a565b602082019050919050565b60006020820190508181036000830152610eff81610ec3565b9050919050565b6000610f11826106a9565b915060008203610f2457610f23610bb7565b5b60018203905091905056fea2646970667358221220b5029e887bff19e8461f7891a23c414aa89b7d318462dc201fe16c643f9712e264736f6c634300081c0033",
  "linkReferences": {},
  "deployedLinkReferences": {}
}