{
  "_format": "hh-sol-artifact-1",
  "contractName": "DocumentRegistry",
  "sourceName": "contracts/DocumentRegistry.sol",
  "abi": [
    {
      "anonymous": false,
      "inputs": [
        {
          "indexed": true,
          "internalType": "address",
          "name": "user",
          "type": "address"
        },
        {
          "indexed": true,
          "internalType": "bytes32",
          "name": "docHash",
          "type": "bytes32"
        },
        {
          "indexed": false,
          "internalType": "uint256",
          "name": "timestamp",
          "type": "uint256"
        }
      ],
      "name": "AgreementSigned",
      "type": "event"
    },
    {
      "anonymous": false,
      "inputs": [
        {
          "indexed": true,
          "internalType": "address",
          "name": "user",
          "type": "address"
        },
        {
          "indexed": true,
          "internalType": "bytes32",
          "name": "docHash",
          "type": "bytes32"
        },
        {
          "indexed": false,
          "internalType": "uint256",
          "name": "timestamp",
          "type": "uint256"
        }
      ],
      "name": "DocumentRegistered",
      "type": "event"
    },
    {
      "inputs": [
        {
          "internalType": "bytes32",
          "name": "",
          "type": "bytes32"
        }
      ],
      "name": "ownerOfHash",
      "outputs": [
        {
          "internalType": "address",
          "name": "",
          "type": "address"
        }
      ],
      "stateMutability": "view",
      "type": "function"
    },
    {
      "inputs": [
        {
          "internalType": "bytes32",
          "name": "docHash",
          "type": "bytes32"
        }
      ],
      "name": "registerDocument",
      "outputs": [],
      "stateMutability": "nonpayable",
      "type": "function"
    },
    {
      "inputs": [
        {
          "internalType": "bytes32",
          "name": "docHash",
          "type": "bytes32"
        }
      ],
      "name": "signAgreement",
      "outputs": [],
      "stateMutability": "nonpayable",
      "type": "function"
    }
  ],
  "bytecode": "0x6080604052348015600f57600080fd5b5061052e8061001f6000396000f3fe608060405234801561001057600080fd5b50600436106100415760003560e01c80639b131974146100465780639bc7786c14610062578063bf6896eb14610092575b600080fd5b610060600480360381019061005b9190610352565b6100ae565b005b61007c60048036038101906100779190610352565b6101f2565b60405161008991906103c0565b60405180910390f35b6100ac60048036038101906100a79190610352565b610225565b005b600073ffffffffffffffffffffffffffffffffffffffff1660008083815260200190815260200160002060009054906101000a900473ffffffffffffffffffffffffffffffffffffffff1673ffffffffffffffffffffffffffffffffffffffff161461014f576040517f08c379a000000000000000000000000000000000000000000000000000000000815260040161014690610438565b60405180910390fd5b3360008083815260200190815260200160002060006101000a81548173ffffffffffffffffffffffffffffffffffffffff021916908373ffffffffffffffffffffffffffffffffffffffff160217905550803373ffffffffffffffffffffffffffffffffffffffff167f0559ae90d56934a4645873d8c059d7dbb9785680854676c1c924a5469076d02f426040516101e79190610471565b60405180910390a350565b60006020528060005260406000206000915054906101000a900473ffffffffffffffffffffffffffffffffffffffff1681565b3373ffffffffffffffffffffffffffffffffffffffff1660008083815260200190815260200160002060009054906101000a900473ffffffffffffffffffffffffffffffffffffffff1673ffffffffffffffffffffffffffffffffffffffff16146102c5576040517f08c379a00000000000000000000000000000000000000000000000000000000081526004016102bc906104d8565b60405180910390fd5b803373ffffffffffffffffffffffffffffffffffffffff167f5a59af89459928872ba4c10e98add865d27015d1a9283cecfb247c8da5d7b2bd4260405161030c9190610471565b60405180910390a350565b600080fd5b6000819050919050565b61032f8161031c565b811461033a57600080fd5b50565b60008135905061034c81610326565b92915050565b60006020828403121561036857610367610317565b5b60006103768482850161033d565b91505092915050565b600073ffffffffffffffffffffffffffffffffffffffff82169050919050565b60006103aa8261037f565b9050919050565b6103ba8161039f565b82525050565b60006020820190506103d560008301846103b1565b92915050565b600082825260208201905092915050565b7f4861736820616c72656164792072656769737465726564000000000000000000600082015250565b60006104226017836103db565b915061042d826103ec565b602082019050919050565b6000602082019050818103600083015261045181610415565b9050919050565b6000819050919050565b61046b81610458565b82525050565b60006020820190506104866000830184610462565b92915050565b7f4f6e6c79206f776e65722063616e207369676e00000000000000000000000000600082015250565b60006104c26013836103db565b91506104cd8261048c565b602082019050919050565b600060208201905081810360008301526104f1816104b5565b905091905056fea26469706673582212209b13ad6716949babd3fa99b597b1c08d2eaf376bed38e7d087dbf5461d60989a64736f6c634300081c0033",
  "linkReferences": {},
  "deployedLinkReferences": {}
}