{"abi":[{"type":"function","name":"addBook","inputs":[{"name":"newBook","type":"tuple","internalType":"struct BookDatabase.Book","components":[{"name":"title","type":"string","internalType":"string"},{"name":"year","type":"uint16","internalType":"uint16"}]}],"outputs":[],"stateMutability":"nonpayable"},{"type":"function","name":"books","inputs":[{"name":"","type":"uint32","internalType":"uint32"}],"outputs":[{"name":"title","type":"string","internalType":"string"},{"name":"year","type":"uint16","internalType":"uint16"}],"stateMutability":"view"},{"type":"function","name":"compare","inputs":[{"name":"str1","type":"string","internalType":"string"},{"name":"str2","type":"string","internalType":"string"}],"outputs":[{"name":"","type":"bool","internalType":"bool"}],"stateMutability":"pure"},{"type":"function","name":"editBook","inputs":[{"name":"id","type":"uint32","internalType":"uint32"},{"name":"newBook","type":"tuple","internalType":"struct BookDatabase.Book","components":[{"name":"title","type":"string","internalType":"string"},{"name":"year","type":"uint16","internalType":"uint16"}]}],"outputs":[],"stateMutability":"nonpayable"},{"type":"function","name":"removeBook","inputs":[{"name":"id","type":"uint32","internalType":"uint32"}],"outputs":[],"stateMutability":"nonpayable"}],"bytecode":{"object":"0x60806040525f5f5f6101000a81548163ffffffff021916908363ffffffff160217905550348015602d575f5ffd5b50610c8f8061003b5f395ff3fe608060405234801561000f575f5ffd5b5060043610610055575f3560e01c80633a96fdd71461005957806368d748ca14610089578063b19a4635146100ba578063e9e7ff0c146100d6578063feaeb5ab146100f2575b5f5ffd5b610073600480360381019061006e9190610639565b61010e565b60405161008091906106c9565b60405180910390f35b6100a3600480360381019061009e919061071b565b61013f565b6040516100b19291906107c2565b60405180910390f35b6100d460048036038101906100cf919061088b565b6101f2565b005b6100f060048036038101906100eb919061071b565b61029b565b005b61010c600480360381019061010791906108d2565b6102e0565b005b5f5f8390505f83905080518251148015610135575080805190602001208280519060200120145b9250505092915050565b6001602052805f5260405f205f91509050805f01805461015e90610959565b80601f016020809104026020016040519081016040528092919081815260200182805461018a90610959565b80156101d55780601f106101ac576101008083540402835291602001916101d5565b820191905f5260205f20905b8154815290600101906020018083116101b857829003601f168201915b505050505090806001015f9054906101000a900461ffff16905082565b5f5f81819054906101000a900463ffffffff1680929190610212906109b6565b91906101000a81548163ffffffff021916908363ffffffff160217905550508060015f5f5f9054906101000a900463ffffffff1663ffffffff1663ffffffff1681526020019081526020015f205f820151815f0190816102729190610b8a565b506020820151816001015f6101000a81548161ffff021916908361ffff16021790555090505050565b60015f8263ffffffff1663ffffffff1681526020019081526020015f205f5f82015f6102c79190610494565b600182015f6101000a81549061ffff0219169055505050565b5f60015f8463ffffffff1663ffffffff1681526020019081526020015f206040518060400160405290815f8201805461031890610959565b80601f016020809104026020016040519081016040528092919081815260200182805461034490610959565b801561038f5780601f106103665761010080835404028352916020019161038f565b820191905f5260205f20905b81548152906001019060200180831161037257829003601f168201915b50505050508152602001600182015f9054906101000a900461ffff1661ffff1661ffff168152505090506103c9815f0151835f015161010e565b1580156103ee57506103ec825f015160405180602001604052805f81525061010e565b155b1561042457815f015160015f8563ffffffff1663ffffffff1681526020019081526020015f205f0190816104229190610b8a565b505b816020015161ffff16816020015161ffff161415801561044b57505f826020015161ffff16115b1561048f57816020015160015f8563ffffffff1663ffffffff1681526020019081526020015f206001015f6101000a81548161ffff021916908361ffff1602179055505b505050565b5080546104a090610959565b5f825580601f106104b157506104ce565b601f0160209004905f5260205f20908101906104cd91906104d1565b5b50565b5b808211156104e8575f815f9055506001016104d2565b5090565b5f604051905090565b5f5ffd5b5f5ffd5b5f5ffd5b5f5ffd5b5f601f19601f8301169050919050565b7f4e487b71000000000000000000000000000000000000000000000000000000005f52604160045260245ffd5b61054b82610505565b810181811067ffffffffffffffff8211171561056a57610569610515565b5b80604052505050565b5f61057c6104ec565b90506105888282610542565b919050565b5f67ffffffffffffffff8211156105a7576105a6610515565b5b6105b082610505565b9050602081019050919050565b828183375f83830152505050565b5f6105dd6105d88461058d565b610573565b9050828152602081018484840111156105f9576105f8610501565b5b6106048482856105bd565b509392505050565b5f82601f8301126106205761061f6104fd565b5b81356106308482602086016105cb565b91505092915050565b5f5f6040838503121561064f5761064e6104f5565b5b5f83013567ffffffffffffffff81111561066c5761066b6104f9565b5b6106788582860161060c565b925050602083013567ffffffffffffffff811115610699576106986104f9565b5b6106a58582860161060c565b9150509250929050565b5f8115159050919050565b6106c3816106af565b82525050565b5f6020820190506106dc5f8301846106ba565b92915050565b5f63ffffffff82169050919050565b6106fa816106e2565b8114610704575f5ffd5b50565b5f81359050610715816106f1565b92915050565b5f602082840312156107305761072f6104f5565b5b5f61073d84828501610707565b91505092915050565b5f81519050919050565b5f82825260208201905092915050565b8281835e5f83830152505050565b5f61077882610746565b6107828185610750565b9350610792818560208601610760565b61079b81610505565b840191505092915050565b5f61ffff82169050919050565b6107bc816107a6565b82525050565b5f6040820190508181035f8301526107da818561076e565b90506107e960208301846107b3565b9392505050565b5f5ffd5b5f5ffd5b610801816107a6565b811461080b575f5ffd5b50565b5f8135905061081c816107f8565b92915050565b5f60408284031215610837576108366107f0565b5b6108416040610573565b90505f82013567ffffffffffffffff8111156108605761085f6107f4565b5b61086c8482850161060c565b5f83015250602061087f8482850161080e565b60208301525092915050565b5f602082840312156108a05761089f6104f5565b5b5f82013567ffffffffffffffff8111156108bd576108bc6104f9565b5b6108c984828501610822565b91505092915050565b5f5f604083850312156108e8576108e76104f5565b5b5f6108f585828601610707565b925050602083013567ffffffffffffffff811115610916576109156104f9565b5b61092285828601610822565b9150509250929050565b7f4e487b71000000000000000000000000000000000000000000000000000000005f52602260045260245ffd5b5f600282049050600182168061097057607f821691505b6020821081036109835761098261092c565b5b50919050565b7f4e487b71000000000000000000000000000000000000000000000000000000005f52601160045260245ffd5b5f6109c0826106e2565b915063ffffffff82036109d6576109d5610989565b5b600182019050919050565b5f819050815f5260205f209050919050565b5f6020601f8301049050919050565b5f82821b905092915050565b5f60088302610a3d7fffffffffffffffffffffffffffffffffffffffffffffffffffffffffffffffff82610a02565b610a478683610a02565b95508019841693508086168417925050509392505050565b5f819050919050565b5f819050919050565b5f610a8b610a86610a8184610a5f565b610a68565b610a5f565b9050919050565b5f819050919050565b610aa483610a71565b610ab8610ab082610a92565b848454610a0e565b825550505050565b5f5f905090565b610acf610ac0565b610ada818484610a9b565b505050565b5b81811015610afd57610af25f82610ac7565b600181019050610ae0565b5050565b601f821115610b4257610b13816109e1565b610b1c846109f3565b81016020851015610b2b578190505b610b3f610b37856109f3565b830182610adf565b50505b505050565b5f82821c905092915050565b5f610b625f1984600802610b47565b1980831691505092915050565b5f610b7a8383610b53565b9150826002028217905092915050565b610b9382610746565b67ffffffffffffffff811115610bac57610bab610515565b5b610bb68254610959565b610bc1828285610b01565b5f60209050601f831160018114610bf2575f8415610be0578287015190505b610bea8582610b6f565b865550610c51565b601f198416610c00866109e1565b5f5b82811015610c2757848901518255600182019150602085019450602081019050610c02565b86831015610c445784890151610c40601f891682610b53565b8355505b6001600288020188555050505b50505050505056fea26469706673582212207d8b8f563db830a7f8b452ce8f2ef73c73f16862f035c5424f1132c8442de2b964736f6c634300081c0033","linkReferences":{}},"methodIdentifiers":{"addBook((string,uint16))":"b19a4635","books(uint32)":"68d748ca","compare(string,string)":"3a96fdd7","editBook(uint32,(string,uint16))":"feaeb5ab","removeBook(uint32)":"e9e7ff0c"},"id":18}