{
  "_format": "hh-sol-artifact-1",
  "contractName": "ProtoCoin",
  "sourceName": "contracts/ProtoCoin.sol",
  "abi": [
    {
      "inputs": [],
      "stateMutability": "nonpayable",
      "type": "constructor"
    },
    {
      "inputs": [
        {
          "internalType": "address",
          "name": "spender",
          "type": "address"
        },
        {
          "internalType": "uint256",
          "name": "allowance",
          "type": "uint256"
        },
        {
          "internalType": "uint256",
          "name": "needed",
          "type": "uint256"
        }
      ],
      "name": "ERC20InsufficientAllowance",
      "type": "error"
    },
    {
      "inputs": [
        {
          "internalType": "address",
          "name": "sender",
          "type": "address"
        },
        {
          "internalType": "uint256",
          "name": "balance",
          "type": "uint256"
        },
        {
          "internalType": "uint256",
          "name": "needed",
          "type": "uint256"
        }
      ],
      "name": "ERC20InsufficientBalance",
      "type": "error"
    },
    {
      "inputs": [
        {
          "internalType": "address",
          "name": "approver",
          "type": "address"
        }
      ],
      "name": "ERC20InvalidApprover",
      "type": "error"
    },
    {
      "inputs": [
        {
          "internalType": "address",
          "name": "receiver",
          "type": "address"
        }
      ],
      "name": "ERC20InvalidReceiver",
      "type": "error"
    },
    {
      "inputs": [
        {
          "internalType": "address",
          "name": "sender",
          "type": "address"
        }
      ],
      "name": "ERC20InvalidSender",
      "type": "error"
    },
    {
      "inputs": [
        {
          "internalType": "address",
          "name": "spender",
          "type": "address"
        }
      ],
      "name": "ERC20InvalidSpender",
      "type": "error"
    },
    {
      "anonymous": false,
      "inputs": [
        {
          "indexed": true,
          "internalType": "address",
          "name": "owner",
          "type": "address"
        },
        {
          "indexed": true,
          "internalType": "address",
          "name": "spender",
          "type": "address"
        },
        {
          "indexed": false,
          "internalType": "uint256",
          "name": "value",
          "type": "uint256"
        }
      ],
      "name": "Approval",
      "type": "event"
    },
    {
      "anonymous": false,
      "inputs": [
        {
          "indexed": true,
          "internalType": "address",
          "name": "from",
          "type": "address"
        },
        {
          "indexed": true,
          "internalType": "address",
          "name": "to",
          "type": "address"
        },
        {
          "indexed": false,
          "internalType": "uint256",
          "name": "value",
          "type": "uint256"
        }
      ],
      "name": "Transfer",
      "type": "event"
    },
    {
      "inputs": [
        {
          "internalType": "address",
          "name": "owner",
          "type": "address"
        },
        {
          "internalType": "address",
          "name": "spender",
          "type": "address"
        }
      ],
      "name": "allowance",
      "outputs": [
        {
          "internalType": "uint256",
          "name": "",
          "type": "uint256"
        }
      ],
      "stateMutability": "view",
      "type": "function"
    },
    {
      "inputs": [
        {
          "internalType": "address",
          "name": "spender",
          "type": "address"
        },
        {
          "internalType": "uint256",
          "name": "value",
          "type": "uint256"
        }
      ],
      "name": "approve",
      "outputs": [
        {
          "internalType": "bool",
          "name": "",
          "type": "bool"
        }
      ],
      "stateMutability": "nonpayable",
      "type": "function"
    },
    {
      "inputs": [
        {
          "internalType": "address",
          "name": "account",
          "type": "address"
        }
      ],
      "name": "balanceOf",
      "outputs": [
        {
          "internalType": "uint256",
          "name": "",
          "type": "uint256"
        }
      ],
      "stateMutability": "view",
      "type": "function"
    },
    {
      "inputs": [],
      "name": "decimals",
      "outputs": [
        {
          "internalType": "uint8",
          "name": "",
          "type": "uint8"
        }
      ],
      "stateMutability": "view",
      "type": "function"
    },
    {
      "inputs": [],
      "name": "getOwner",
      "outputs": [
        {
          "internalType": "address",
          "name": "",
          "type": "address"
        }
      ],
      "stateMutability": "view",
      "type": "function"
    },
    {
      "inputs": [],
      "name": "mint",
      "outputs": [],
      "stateMutability": "nonpayable",
      "type": "function"
    },
    {
      "inputs": [],
      "name": "name",
      "outputs": [
        {
          "internalType": "string",
          "name": "",
          "type": "string"
        }
      ],
      "stateMutability": "view",
      "type": "function"
    },
    {
      "inputs": [
        {
          "internalType": "uint256",
          "name": "newAmount",
          "type": "uint256"
        }
      ],
      "name": "setMintAmount",
      "outputs": [],
      "stateMutability": "nonpayable",
      "type": "function"
    },
    {
      "inputs": [],
      "name": "symbol",
      "outputs": [
        {
          "internalType": "string",
          "name": "",
          "type": "string"
        }
      ],
      "stateMutability": "view",
      "type": "function"
    },
    {
      "inputs": [],
      "name": "totalSupply",
      "outputs": [
        {
          "internalType": "uint256",
          "name": "",
          "type": "uint256"
        }
      ],
      "stateMutability": "view",
      "type": "function"
    },
    {
      "inputs": [
        {
          "internalType": "address",
          "name": "to",
          "type": "address"
        },
        {
          "internalType": "uint256",
          "name": "value",
          "type": "uint256"
        }
      ],
      "name": "transfer",
      "outputs": [
        {
          "internalType": "bool",
          "name": "",
          "type": "bool"
        }
      ],
      "stateMutability": "nonpayable",
      "type": "function"
    },
    {
      "inputs": [
        {
          "internalType": "address",
          "name": "from",
          "type": "address"
        },
        {
          "internalType": "address",
          "name": "to",
          "type": "address"
        },
        {
          "internalType": "uint256",
          "name": "value",
          "type": "uint256"
        }
      ],
      "name": "transferFrom",
      "outputs": [
        {
          "internalType": "bool",
          "name": "",
          "type": "bool"
        }
      ],
      "stateMutability": "nonpayable",
      "type": "function"
    }
  ],
  "bytecode": "0x6080604052600060065534801561001557600080fd5b506040518060400160405280600981526020017f50726f746f436f696e00000000000000000000000000000000000000000000008152506040518060400160405280600381526020017f505243000000000000000000000000000000000000000000000000000000000081525081600390816100919190610601565b5080600490816100a19190610601565b50505033600560006101000a81548173ffffffffffffffffffffffffffffffffffffffff021916908373ffffffffffffffffffffffffffffffffffffffff1602179055506100ff3369021e19e0c9bab240000061010460201b60201c565b6107f3565b600073ffffffffffffffffffffffffffffffffffffffff168273ffffffffffffffffffffffffffffffffffffffff16036101765760006040517fec442f0500000000000000000000000000000000000000000000000000000000815260040161016d9190610714565b60405180910390fd5b6101886000838361018c60201b60201c565b5050565b600073ffffffffffffffffffffffffffffffffffffffff168373ffffffffffffffffffffffffffffffffffffffff16036101de5780600260008282546101d2919061075e565b925050819055506102b1565b60008060008573ffffffffffffffffffffffffffffffffffffffff1673ffffffffffffffffffffffffffffffffffffffff1681526020019081526020016000205490508181101561026a578381836040517fe450d38c000000000000000000000000000000000000000000000000000000008152600401610261939291906107a1565b60405180910390fd5b8181036000808673ffffffffffffffffffffffffffffffffffffffff1673ffffffffffffffffffffffffffffffffffffffff16815260200190815260200160002081905550505b600073ffffffffffffffffffffffffffffffffffffffff168273ffffffffffffffffffffffffffffffffffffffff16036102fa5780600260008282540392505081905550610347565b806000808473ffffffffffffffffffffffffffffffffffffffff1673ffffffffffffffffffffffffffffffffffffffff168152602001908152602001600020600082825401925050819055505b8173ffffffffffffffffffffffffffffffffffffffff168373ffffffffffffffffffffffffffffffffffffffff167fddf252ad1be2c89b69c2b068fc378daa952ba7f163c4a11628f55a4df523b3ef836040516103a491906107d8565b60405180910390a3505050565b600081519050919050565b7f4e487b7100000000000000000000000000000000000000000000000000000000600052604160045260246000fd5b7f4e487b7100000000000000000000000000000000000000000000000000000000600052602260045260246000fd5b6000600282049050600182168061043257607f821691505b602082108103610445576104446103eb565b5b50919050565b60008190508160005260206000209050919050565b60006020601f8301049050919050565b600082821b905092915050565b6000600883026104ad7fffffffffffffffffffffffffffffffffffffffffffffffffffffffffffffffff82610470565b6104b78683610470565b95508019841693508086168417925050509392505050565b6000819050919050565b6000819050919050565b60006104fe6104f96104f4846104cf565b6104d9565b6104cf565b9050919050565b6000819050919050565b610518836104e3565b61052c61052482610505565b84845461047d565b825550505050565b600090565b610541610534565b61054c81848461050f565b505050565b5b8181101561057057610565600082610539565b600181019050610552565b5050565b601f8211156105b5576105868161044b565b61058f84610460565b8101602085101561059e578190505b6105b26105aa85610460565b830182610551565b50505b505050565b600082821c905092915050565b60006105d8600019846008026105ba565b1980831691505092915050565b60006105f183836105c7565b9150826002028217905092915050565b61060a826103b1565b67ffffffffffffffff811115610623576106226103bc565b5b61062d825461041a565b610638828285610574565b600060209050601f83116001811461066b5760008415610659578287015190505b61066385826105e5565b8655506106cb565b601f1984166106798661044b565b60005b828110156106a15784890151825560018201915060208501945060208101905061067c565b868310156106be57848901516106ba601f8916826105c7565b8355505b6001600288020188555050505b505050505050565b600073ffffffffffffffffffffffffffffffffffffffff82169050919050565b60006106fe826106d3565b9050919050565b61070e816106f3565b82525050565b60006020820190506107296000830184610705565b92915050565b7f4e487b7100000000000000000000000000000000000000000000000000000000600052601160045260246000fd5b6000610769826104cf565b9150610774836104cf565b925082820190508082111561078c5761078b61072f565b5b92915050565b61079b816104cf565b82525050565b60006060820190506107b66000830186610705565b6107c36020830185610792565b6107d06040830184610792565b949350505050565b60006020820190506107ed6000830184610792565b92915050565b611195806108026000396000f3fe608060405234801561001057600080fd5b50600436106100b45760003560e01c806370a082311161007157806370a082311461017d578063893d20e8146101ad57806395d89b41146101cb578063a9059cbb146101e9578063c7cd997f14610219578063dd62ed3e14610235576100b4565b806306fdde03146100b9578063095ea7b3146100d75780631249c58b1461010757806318160ddd1461011157806323b872dd1461012f578063313ce5671461015f575b600080fd5b6100c1610265565b6040516100ce9190610ce4565b60405180910390f35b6100f160048036038101906100ec9190610d9f565b6102f7565b6040516100fe9190610dfa565b60405180910390f35b61010f61031a565b005b6101196103a9565b6040516101269190610e24565b60405180910390f35b61014960048036038101906101449190610e3f565b6103b3565b6040516101569190610dfa565b60405180910390f35b6101676103e2565b6040516101749190610eae565b60405180910390f35b61019760048036038101906101929190610ec9565b6103eb565b6040516101a49190610e24565b60405180910390f35b6101b5610433565b6040516101c29190610f05565b60405180910390f35b6101d361045d565b6040516101e09190610ce4565b60405180910390f35b61020360048036038101906101fe9190610d9f565b6104ef565b6040516102109190610dfa565b60405180910390f35b610233600480360381019061022e9190610f20565b610512565b005b61024f600480360381019061024a9190610f4d565b6105ac565b60405161025c9190610e24565b60405180910390f35b60606003805461027490610fbc565b80601f01602080910402602001604051908101604052809291908181526020018280546102a090610fbc565b80156102ed5780601f106102c2576101008083540402835291602001916102ed565b820191906000526020600020905b8154815290600101906020018083116102d057829003601f168201915b5050505050905090565b600080610302610633565b905061030f81858561063b565b600191505092915050565b600760003373ffffffffffffffffffffffffffffffffffffffff1673ffffffffffffffffffffffffffffffffffffffff16815260200190815260200160002054421161039b576040517f08c379a000000000000000000000000000000000000000000000000000000000815260040161039290611039565b60405180910390fd5b6103a73360065461064d565b565b6000600254905090565b6000806103be610633565b90506103cb8582856106cf565b6103d6858585610764565b60019150509392505050565b60006012905090565b60008060008373ffffffffffffffffffffffffffffffffffffffff1673ffffffffffffffffffffffffffffffffffffffff168152602001908152602001600020549050919050565b6000600560009054906101000a900473ffffffffffffffffffffffffffffffffffffffff16905090565b60606004805461046c90610fbc565b80601f016020809104026020016040519081016040528092919081815260200182805461049890610fbc565b80156104e55780601f106104ba576101008083540402835291602001916104e5565b820191906000526020600020905b8154815290600101906020018083116104c857829003601f168201915b5050505050905090565b6000806104fa610633565b9050610507818585610764565b600191505092915050565b3373ffffffffffffffffffffffffffffffffffffffff16600560009054906101000a900473ffffffffffffffffffffffffffffffffffffffff1673ffffffffffffffffffffffffffffffffffffffff16146105a2576040517f08c379a0000000000000000000000000000000000000000000000000000000008152600401610599906110a5565b60405180910390fd5b8060068190555050565b6000600160008473ffffffffffffffffffffffffffffffffffffffff1673ffffffffffffffffffffffffffffffffffffffff16815260200190815260200160002060008373ffffffffffffffffffffffffffffffffffffffff1673ffffffffffffffffffffffffffffffffffffffff16815260200190815260200160002054905092915050565b600033905090565b6106488383836001610858565b505050565b600073ffffffffffffffffffffffffffffffffffffffff168273ffffffffffffffffffffffffffffffffffffffff16036106bf5760006040517fec442f050000000000000000000000000000000000000000000000000000000081526004016106b69190610f05565b60405180910390fd5b6106cb60008383610a2f565b5050565b60006106db84846105ac565b90507fffffffffffffffffffffffffffffffffffffffffffffffffffffffffffffffff81101561075e578181101561074e578281836040517ffb8f41b2000000000000000000000000000000000000000000000000000000008152600401610745939291906110c5565b60405180910390fd5b61075d84848484036000610858565b5b50505050565b600073ffffffffffffffffffffffffffffffffffffffff168373ffffffffffffffffffffffffffffffffffffffff16036107d65760006040517f96c6fd1e0000000000000000000000000000000000000000000000000000000081526004016107cd9190610f05565b60405180910390fd5b600073ffffffffffffffffffffffffffffffffffffffff168273ffffffffffffffffffffffffffffffffffffffff16036108485760006040517fec442f0500000000000000000000000000000000000000000000000000000000815260040161083f9190610f05565b60405180910390fd5b610853838383610a2f565b505050565b600073ffffffffffffffffffffffffffffffffffffffff168473ffffffffffffffffffffffffffffffffffffffff16036108ca5760006040517fe602df050000000000000000000000000000000000000000000000000000000081526004016108c19190610f05565b60405180910390fd5b600073ffffffffffffffffffffffffffffffffffffffff168373ffffffffffffffffffffffffffffffffffffffff160361093c5760006040517f94280d620000000000000000000000000000000000000000000000000000000081526004016109339190610f05565b60405180910390fd5b81600160008673ffffffffffffffffffffffffffffffffffffffff1673ffffffffffffffffffffffffffffffffffffffff16815260200190815260200160002060008573ffffffffffffffffffffffffffffffffffffffff1673ffffffffffffffffffffffffffffffffffffffff168152602001908152602001600020819055508015610a29578273ffffffffffffffffffffffffffffffffffffffff168473ffffffffffffffffffffffffffffffffffffffff167f8c5be1e5ebec7d5bd14f71427d1e84f3dd0314c0f7b2291e5b200ac8c7c3b92584604051610a209190610e24565b60405180910390a35b50505050565b600073ffffffffffffffffffffffffffffffffffffffff168373ffffffffffffffffffffffffffffffffffffffff1603610a81578060026000828254610a75919061112b565b92505081905550610b54565b60008060008573ffffffffffffffffffffffffffffffffffffffff1673ffffffffffffffffffffffffffffffffffffffff16815260200190815260200160002054905081811015610b0d578381836040517fe450d38c000000000000000000000000000000000000000000000000000000008152600401610b04939291906110c5565b60405180910390fd5b8181036000808673ffffffffffffffffffffffffffffffffffffffff1673ffffffffffffffffffffffffffffffffffffffff16815260200190815260200160002081905550505b600073ffffffffffffffffffffffffffffffffffffffff168273ffffffffffffffffffffffffffffffffffffffff1603610b9d5780600260008282540392505081905550610bea565b806000808473ffffffffffffffffffffffffffffffffffffffff1673ffffffffffffffffffffffffffffffffffffffff168152602001908152602001600020600082825401925050819055505b8173ffffffffffffffffffffffffffffffffffffffff168373ffffffffffffffffffffffffffffffffffffffff167fddf252ad1be2c89b69c2b068fc378daa952ba7f163c4a11628f55a4df523b3ef83604051610c479190610e24565b60405180910390a3505050565b600081519050919050565b600082825260208201905092915050565b60005b83811015610c8e578082015181840152602081019050610c73565b60008484015250505050565b6000601f19601f8301169050919050565b6000610cb682610c54565b610cc08185610c5f565b9350610cd0818560208601610c70565b610cd981610c9a565b840191505092915050565b60006020820190508181036000830152610cfe8184610cab565b905092915050565b600080fd5b600073ffffffffffffffffffffffffffffffffffffffff82169050919050565b6000610d3682610d0b565b9050919050565b610d4681610d2b565b8114610d5157600080fd5b50565b600081359050610d6381610d3d565b92915050565b6000819050919050565b610d7c81610d69565b8114610d8757600080fd5b50565b600081359050610d9981610d73565b92915050565b60008060408385031215610db657610db5610d06565b5b6000610dc485828601610d54565b9250506020610dd585828601610d8a565b9150509250929050565b60008115159050919050565b610df481610ddf565b82525050565b6000602082019050610e0f6000830184610deb565b92915050565b610e1e81610d69565b82525050565b6000602082019050610e396000830184610e15565b92915050565b600080600060608486031215610e5857610e57610d06565b5b6000610e6686828701610d54565b9350506020610e7786828701610d54565b9250506040610e8886828701610d8a565b9150509250925092565b600060ff82169050919050565b610ea881610e92565b82525050565b6000602082019050610ec36000830184610e9f565b92915050565b600060208284031215610edf57610ede610d06565b5b6000610eed84828501610d54565b91505092915050565b610eff81610d2b565b82525050565b6000602082019050610f1a6000830184610ef6565b92915050565b600060208284031215610f3657610f35610d06565b5b6000610f4484828501610d8a565b91505092915050565b60008060408385031215610f6457610f63610d06565b5b6000610f7285828601610d54565b9250506020610f8385828601610d54565b9150509250929050565b7f4e487b7100000000000000000000000000000000000000000000000000000000600052602260045260246000fd5b60006002820490506001821680610fd457607f821691505b602082108103610fe757610fe6610f8d565b5b50919050565b7f596f752063616e6e6f74206d696e7420747769636520696e206120726f772e00600082015250565b6000611023601f83610c5f565b915061102e82610fed565b602082019050919050565b6000602082019050818103600083015261105281611016565b9050919050565b7f596f7520646f206e6f742068617665207065726d697373696f6e000000000000600082015250565b600061108f601a83610c5f565b915061109a82611059565b602082019050919050565b600060208201905081810360008301526110be81611082565b9050919050565b60006060820190506110da6000830186610ef6565b6110e76020830185610e15565b6110f46040830184610e15565b949350505050565b7f4e487b7100000000000000000000000000000000000000000000000000000000600052601160045260246000fd5b600061113682610d69565b915061114183610d69565b9250828201905080821115611159576111586110fc565b5b9291505056fea264697066735822122056ba0e61f70903873b2e7617e396ef25db212da851817e0c02c008be880fd2cf64736f6c634300081c0033",
  "linkReferences": {},
  "deployedLinkReferences": {}
}