{
  "contractName": "Voting",
  "abi": [
    {
      "inputs": [
        {
          "internalType": "string[]",
          "name": "candidateNames",
          "type": "string[]"
        }
      ],
      "stateMutability": "nonpayable",
      "type": "constructor"
    },
    {
      "inputs": [
        {
          "internalType": "uint256",
          "name": "",
          "type": "uint256"
        }
      ],
      "name": "candidateList",
      "outputs": [
        {
          "internalType": "string",
          "name": "",
          "type": "string"
        }
      ],
      "stateMutability": "view",
      "type": "function",
      "constant": true
    },
    {
      "inputs": [
        {
          "internalType": "string",
          "name": "",
          "type": "string"
        }
      ],
      "name": "votesReceived",
      "outputs": [
        {
          "internalType": "uint256",
          "name": "",
          "type": "uint256"
        }
      ],
      "stateMutability": "view",
      "type": "function",
      "constant": true
    },
    {
      "inputs": [
        {
          "internalType": "string",
          "name": "candidate",
          "type": "string"
        }
      ],
      "name": "totalVotesFor",
      "outputs": [
        {
          "internalType": "uint256",
          "name": "",
          "type": "uint256"
        }
      ],
      "stateMutability": "view",
      "type": "function",
      "constant": true
    },
    {
      "inputs": [
        {
          "internalType": "string",
          "name": "candidate",
          "type": "string"
        }
      ],
      "name": "voteForCandidate",
      "outputs": [],
      "stateMutability": "nonpayable",
      "type": "function"
    },
    {
      "inputs": [
        {
          "internalType": "string",
          "name": "candidate",
          "type": "string"
        }
      ],
      "name": "validCandidate",
      "outputs": [
        {
          "internalType": "bool",
          "name": "",
          "type": "bool"
        }
      ],
      "stateMutability": "view",
      "type": "function",
      "constant": true
    }
  ],
  "bytecode": "0x608060405234801562000010575f80fd5b5060405162000fa238038062000fa28339818101604052810190620000369190620003b7565b805f90805190602001906200004d92919062000055565b505062000721565b828054828255905f5260205f20908101928215620000a0579160200282015b828111156200009f5782518290816200008e91906200063d565b509160200191906001019062000074565b5b509050620000af9190620000b3565b5090565b5b80821115620000d6575f8181620000cc9190620000da565b50600101620000b4565b5090565b508054620000e8906200043d565b5f825580601f10620000fb57506200011a565b601f0160209004905f5260205f20908101906200011991906200011d565b5b50565b5b8082111562000136575f815f9055506001016200011e565b5090565b5f604051905090565b5f80fd5b5f80fd5b5f80fd5b5f601f19601f8301169050919050565b7f4e487b71000000000000000000000000000000000000000000000000000000005f52604160045260245ffd5b62000197826200014f565b810181811067ffffffffffffffff82111715620001b957620001b86200015f565b5b80604052505050565b5f620001cd6200013a565b9050620001db82826200018c565b919050565b5f67ffffffffffffffff821115620001fd57620001fc6200015f565b5b602082029050602081019050919050565b5f80fd5b5f80fd5b5f67ffffffffffffffff8211156200023357620002326200015f565b5b6200023e826200014f565b9050602081019050919050565b5f5b838110156200026a5780820151818401526020810190506200024d565b5f8484015250505050565b5f6200028b620002858462000216565b620001c2565b905082815260208101848484011115620002aa57620002a962000212565b5b620002b78482856200024b565b509392505050565b5f82601f830112620002d657620002d56200014b565b5b8151620002e884826020860162000275565b91505092915050565b5f620003076200030184620001e0565b620001c2565b905080838252602082019050602084028301858111156200032d576200032c6200020e565b5b835b818110156200037b57805167ffffffffffffffff8111156200035657620003556200014b565b5b808601620003658982620002bf565b855260208501945050506020810190506200032f565b5050509392505050565b5f82601f8301126200039c576200039b6200014b565b5b8151620003ae848260208601620002f1565b91505092915050565b5f60208284031215620003cf57620003ce62000143565b5b5f82015167ffffffffffffffff811115620003ef57620003ee62000147565b5b620003fd8482850162000385565b91505092915050565b5f81519050919050565b7f4e487b71000000000000000000000000000000000000000000000000000000005f52602260045260245ffd5b5f60028204905060018216806200045557607f821691505b6020821081036200046b576200046a62000410565b5b50919050565b5f819050815f5260205f209050919050565b5f6020601f8301049050919050565b5f82821b905092915050565b5f60088302620004cf7fffffffffffffffffffffffffffffffffffffffffffffffffffffffffffffffff8262000492565b620004db868362000492565b95508019841693508086168417925050509392505050565b5f819050919050565b5f819050919050565b5f620005256200051f6200051984620004f3565b620004fc565b620004f3565b9050919050565b5f819050919050565b620005408362000505565b620005586200054f826200052c565b8484546200049e565b825550505050565b5f90565b6200056e62000560565b6200057b81848462000535565b505050565b5b81811015620005a257620005965f8262000564565b60018101905062000581565b5050565b601f821115620005f157620005bb8162000471565b620005c68462000483565b81016020851015620005d6578190505b620005ee620005e58562000483565b83018262000580565b50505b505050565b5f82821c905092915050565b5f620006135f1984600802620005f6565b1980831691505092915050565b5f6200062d838362000602565b9150826002028217905092915050565b620006488262000406565b67ffffffffffffffff8111156200066457620006636200015f565b5b6200067082546200043d565b6200067d828285620005a6565b5f60209050601f831160018114620006b3575f84156200069e578287015190505b620006aa858262000620565b86555062000719565b601f198416620006c38662000471565b5f5b82811015620006ec57848901518255600182019150602085019450602081019050620006c5565b868310156200070c578489015162000708601f89168262000602565b8355505b6001600288020188555050505b505050505050565b610873806200072f5f395ff3fe608060405234801561000f575f80fd5b5060043610610055575f3560e01c80634a3bf37714610059578063538c91b2146100895780638d4b44d9146100b9578063b13c744b146100e9578063e89927ef14610119575b5f80fd5b610073600480360381019061006e919061047a565b610135565b60405161008091906104d9565b60405180910390f35b6100a3600480360381019061009e919061047a565b61016d565b6040516100b0919061050c565b60405180910390f35b6100d360048036038101906100ce919061047a565b610213565b6040516100e091906104d9565b60405180910390f35b61010360048036038101906100fe919061054f565b610240565b60405161011091906105f4565b60405180910390f35b610133600480360381019061012e919061047a565b6102e5565b005b5f61013f8261016d565b610147575f80fd5b600182604051610157919061064e565b9081526020016040518091039020549050919050565b5f805f90505b5f805490508110156102095782604051602001610190919061064e565b604051602081830303815290604052805190602001205f82815481106101b9576101b8610664565b5b905f5260205f20016040516020016101d19190610780565b60405160208183030381529060405280519060200120036101f657600191505061020e565b8080610201906107c3565b915050610173565b505f90505b919050565b6001818051602081018201805184825260208301602085012081835280955050505050505f915090505481565b5f818154811061024e575f80fd5b905f5260205f20015f915090508054610266906106be565b80601f0160208091040260200160405190810160405280929190818152602001828054610292906106be565b80156102dd5780601f106102b4576101008083540402835291602001916102dd565b820191905f5260205f20905b8154815290600101906020018083116102c057829003601f168201915b505050505081565b6102ee8161016d565b6102f6575f80fd5b60018082604051610307919061064e565b90815260200160405180910390205f828254610323919061080a565b9250508190555050565b5f604051905090565b5f80fd5b5f80fd5b5f80fd5b5f80fd5b5f601f19601f8301169050919050565b7f4e487b71000000000000000000000000000000000000000000000000000000005f52604160045260245ffd5b61038c82610346565b810181811067ffffffffffffffff821117156103ab576103aa610356565b5b80604052505050565b5f6103bd61032d565b90506103c98282610383565b919050565b5f67ffffffffffffffff8211156103e8576103e7610356565b5b6103f182610346565b9050602081019050919050565b828183375f83830152505050565b5f61041e610419846103ce565b6103b4565b90508281526020810184848401111561043a57610439610342565b5b6104458482856103fe565b509392505050565b5f82601f8301126104615761046061033e565b5b813561047184826020860161040c565b91505092915050565b5f6020828403121561048f5761048e610336565b5b5f82013567ffffffffffffffff8111156104ac576104ab61033a565b5b6104b88482850161044d565b91505092915050565b5f819050919050565b6104d3816104c1565b82525050565b5f6020820190506104ec5f8301846104ca565b92915050565b5f8115159050919050565b610506816104f2565b82525050565b5f60208201905061051f5f8301846104fd565b92915050565b61052e816104c1565b8114610538575f80fd5b50565b5f8135905061054981610525565b92915050565b5f6020828403121561056457610563610336565b5b5f6105718482850161053b565b91505092915050565b5f81519050919050565b5f82825260208201905092915050565b5f5b838110156105b1578082015181840152602081019050610596565b5f8484015250505050565b5f6105c68261057a565b6105d08185610584565b93506105e0818560208601610594565b6105e981610346565b840191505092915050565b5f6020820190508181035f83015261060c81846105bc565b905092915050565b5f81905092915050565b5f6106288261057a565b6106328185610614565b9350610642818560208601610594565b80840191505092915050565b5f610659828461061e565b915081905092915050565b7f4e487b71000000000000000000000000000000000000000000000000000000005f52603260045260245ffd5b7f4e487b71000000000000000000000000000000000000000000000000000000005f52602260045260245ffd5b5f60028204905060018216806106d557607f821691505b6020821081036106e8576106e7610691565b5b50919050565b5f819050815f5260205f209050919050565b5f815461070c816106be565b6107168186610614565b9450600182165f8114610730576001811461074557610777565b60ff1983168652811515820286019350610777565b61074e856106ee565b5f5b8381101561076f57815481890152600182019150602081019050610750565b838801955050505b50505092915050565b5f61078b8284610700565b915081905092915050565b7f4e487b71000000000000000000000000000000000000000000000000000000005f52601160045260245ffd5b5f6107cd826104c1565b91507fffffffffffffffffffffffffffffffffffffffffffffffffffffffffffffffff82036107ff576107fe610796565b5b600182019050919050565b5f610814826104c1565b915061081f836104c1565b925082820190508082111561083757610836610796565b5b9291505056fea2646970667358221220964af093e7454c0573e450892bfdd1b9eee4f612e3a20c21323e5cac58170dfd64736f6c63430008150033",
  "immutableReferences": {},
  "source": "// SPDX-License-Identifier: MIT\npragma solidity >=0.7.0 < 0.9.0;\n\ncontract Voting {\n\n    // Lista de candidatos\n    string[] public candidateList;\n\n    // Mapeamento para contar os votos recebidos por cada candidato\n    mapping (string => uint256) public votesReceived;\n\n    // Construtor que inicializa a lista de candidatos\n    constructor (string[] memory candidateNames) {\n        candidateList = candidateNames;\n    }\n\n    // Funo para obter o total de votos de um candidato especfico\n    function totalVotesFor(string memory candidate) public view returns (uint256) {\n        require(validCandidate(candidate));\n        return votesReceived[candidate];\n    }\n\n    // Funo para votar em um candidato\n    function voteForCandidate(string memory candidate) public {\n        require(validCandidate(candidate));\n        votesReceived[candidate] += 1;\n    }\n\n    // Funo para verificar se o candidato  vlido\n    function validCandidate(string memory candidate) public view returns (bool) {\n        for(uint i = 0; i < candidateList.length; i++) {\n            if(keccak256(abi.encodePacked(candidateList[i])) == keccak256(abi.encodePacked(candidate))) {\n                return true;\n            }\n        }\n        return false;\n    }\n}\n",
  "sourcePath": "/home/tales/Documents/GITHUB/Blockchain/voting-project/contracts/Voting.sol",
  "compiler": {
    "name": "solc",
    "version": "0.8.21+commit.d9974bed.Emscripten.clang"
  },
  "schemaVersion": "3.4.16",
  "updatedAt": "2024-09-29T18:40:21.062Z",
  "networkType": "ethereum",
  "devdoc": {
    "kind": "dev",
    "methods": {},
    "version": 1
  },
  "userdoc": {
    "kind": "user",
    "methods": {},
    "version": 1
  }
}