{
  "_format": "hh-sol-artifact-1",
  "contractName": "SimpleContract",
  "sourceName": "contracts/SimpleContract.sol",
  "abi": [
    {
      "inputs": [],
      "stateMutability": "nonpayable",
      "type": "constructor"
    },
    {
      "inputs": [
        {
          "internalType": "address",
          "name": "caller",
          "type": "address"
        }
      ],
      "name": "Unauthorized",
      "type": "error"
    },
    {
      "inputs": [],
      "name": "age",
      "outputs": [
        {
          "internalType": "uint256",
          "name": "",
          "type": "uint256"
        }
      ],
      "stateMutability": "view",
      "type": "function"
    },
    {
      "inputs": [],
      "name": "getAge",
      "outputs": [
        {
          "internalType": "uint256",
          "name": "",
          "type": "uint256"
        }
      ],
      "stateMutability": "view",
      "type": "function"
    },
    {
      "inputs": [],
      "name": "getName",
      "outputs": [
        {
          "internalType": "string",
          "name": "",
          "type": "string"
        }
      ],
      "stateMutability": "view",
      "type": "function"
    },
    {
      "inputs": [],
      "name": "name",
      "outputs": [
        {
          "internalType": "string",
          "name": "",
          "type": "string"
        }
      ],
      "stateMutability": "view",
      "type": "function"
    },
    {
      "inputs": [],
      "name": "owner",
      "outputs": [
        {
          "internalType": "address",
          "name": "",
          "type": "address"
        }
      ],
      "stateMutability": "view",
      "type": "function"
    },
    {
      "inputs": [
        {
          "internalType": "uint256",
          "name": "_age",
          "type": "uint256"
        }
      ],
      "name": "setAge",
      "outputs": [],
      "stateMutability": "nonpayable",
      "type": "function"
    },
    {
      "inputs": [
        {
          "internalType": "string",
          "name": "_name",
          "type": "string"
        }
      ],
      "name": "setName",
      "outputs": [],
      "stateMutability": "nonpayable",
      "type": "function"
    },
    {
      "inputs": [
        {
          "internalType": "string",
          "name": "_name",
          "type": "string"
        },
        {
          "internalType": "uint256",
          "name": "_age",
          "type": "uint256"
        }
      ],
      "name": "signer",
      "outputs": [],
      "stateMutability": "nonpayable",
      "type": "function"
    }
  ],
  "bytecode": "0x6080604052348015600f57600080fd5b5033600260006101000a81548173ffffffffffffffffffffffffffffffffffffffff021916908373ffffffffffffffffffffffffffffffffffffffff160217905550610b25806100606000396000f3fe608060405234801561001057600080fd5b50600436106100885760003560e01c8063967e6e651161005b578063967e6e6514610105578063c47f002714610123578063d5dcf1271461013f578063dbeca92e1461015b57610088565b806306fdde031461008d57806317d7de7c146100ab578063262a9dff146100c95780638da5cb5b146100e7575b600080fd5b610095610177565b6040516100a291906104ac565b60405180910390f35b6100b3610205565b6040516100c091906104ac565b60405180910390f35b6100d1610297565b6040516100de91906104e7565b60405180910390f35b6100ef61029d565b6040516100fc9190610543565b60405180910390f35b61010d6102c3565b60405161011a91906104e7565b60405180910390f35b61013d600480360381019061013891906106a7565b6102cc565b005b6101596004803603810190610154919061071c565b6102df565b005b61017560048036038101906101709190610749565b61032c565b005b60018054610184906107d4565b80601f01602080910402602001604051908101604052809291908181526020018280546101b0906107d4565b80156101fd5780601f106101d2576101008083540402835291602001916101fd565b820191906000526020600020905b8154815290600101906020018083116101e057829003601f168201915b505050505081565b606060018054610214906107d4565b80601f0160208091040260200160405190810160405280929190818152602001828054610240906107d4565b801561028d5780601f106102625761010080835404028352916020019161028d565b820191906000526020600020905b81548152906001019060200180831161027057829003601f168201915b5050505050905090565b60005481565b600260009054906101000a900473ffffffffffffffffffffffffffffffffffffffff1681565b60008054905090565b80600190816102db91906109b1565b5050565b60008111610322576040517f08c379a000000000000000000000000000000000000000000000000000000000815260040161031990610acf565b60405180910390fd5b8060008190555050565b600260009054906101000a900473ffffffffffffffffffffffffffffffffffffffff1673ffffffffffffffffffffffffffffffffffffffff163373ffffffffffffffffffffffffffffffffffffffff16146103be57336040517f8e4a23d60000000000000000000000000000000000000000000000000000000081526004016103b59190610543565b60405180910390fd5b60008111610401576040517f08c379a00000000000000000000000000000000000000000000000000000000081526004016103f890610acf565b60405180910390fd5b816001908161041091906109b1565b50806000819055505050565b600081519050919050565b600082825260208201905092915050565b60005b8381101561045657808201518184015260208101905061043b565b60008484015250505050565b6000601f19601f8301169050919050565b600061047e8261041c565b6104888185610427565b9350610498818560208601610438565b6104a181610462565b840191505092915050565b600060208201905081810360008301526104c68184610473565b905092915050565b6000819050919050565b6104e1816104ce565b82525050565b60006020820190506104fc60008301846104d8565b92915050565b600073ffffffffffffffffffffffffffffffffffffffff82169050919050565b600061052d82610502565b9050919050565b61053d81610522565b82525050565b60006020820190506105586000830184610534565b92915050565b6000604051905090565b600080fd5b600080fd5b600080fd5b600080fd5b7f4e487b7100000000000000000000000000000000000000000000000000000000600052604160045260246000fd5b6105b482610462565b810181811067ffffffffffffffff821117156105d3576105d261057c565b5b80604052505050565b60006105e661055e565b90506105f282826105ab565b919050565b600067ffffffffffffffff8211156106125761061161057c565b5b61061b82610462565b9050602081019050919050565b82818337600083830152505050565b600061064a610645846105f7565b6105dc565b90508281526020810184848401111561066657610665610577565b5b610671848285610628565b509392505050565b600082601f83011261068e5761068d610572565b5b813561069e848260208601610637565b91505092915050565b6000602082840312156106bd576106bc610568565b5b600082013567ffffffffffffffff8111156106db576106da61056d565b5b6106e784828501610679565b91505092915050565b6106f9816104ce565b811461070457600080fd5b50565b600081359050610716816106f0565b92915050565b60006020828403121561073257610731610568565b5b600061074084828501610707565b91505092915050565b600080604083850312156107605761075f610568565b5b600083013567ffffffffffffffff81111561077e5761077d61056d565b5b61078a85828601610679565b925050602061079b85828601610707565b9150509250929050565b7f4e487b7100000000000000000000000000000000000000000000000000000000600052602260045260246000fd5b600060028204905060018216806107ec57607f821691505b6020821081036107ff576107fe6107a5565b5b50919050565b60008190508160005260206000209050919050565b60006020601f8301049050919050565b600082821b905092915050565b6000600883026108677fffffffffffffffffffffffffffffffffffffffffffffffffffffffffffffffff8261082a565b610871868361082a565b95508019841693508086168417925050509392505050565b6000819050919050565b60006108ae6108a96108a4846104ce565b610889565b6104ce565b9050919050565b6000819050919050565b6108c883610893565b6108dc6108d4826108b5565b848454610837565b825550505050565b600090565b6108f16108e4565b6108fc8184846108bf565b505050565b5b81811015610920576109156000826108e9565b600181019050610902565b5050565b601f8211156109655761093681610805565b61093f8461081a565b8101602085101561094e578190505b61096261095a8561081a565b830182610901565b50505b505050565b600082821c905092915050565b60006109886000198460080261096a565b1980831691505092915050565b60006109a18383610977565b9150826002028217905092915050565b6109ba8261041c565b67ffffffffffffffff8111156109d3576109d261057c565b5b6109dd82546107d4565b6109e8828285610924565b600060209050601f831160018114610a1b5760008415610a09578287015190505b610a138582610995565b865550610a7b565b601f198416610a2986610805565b60005b82811015610a5157848901518255600182019150602085019450602081019050610a2c565b86831015610a6e5784890151610a6a601f891682610977565b8355505b6001600288020188555050505b505050505050565b7f412069646164652074656d2071756520736572206d61696f7220717565203000600082015250565b6000610ab9601f83610427565b9150610ac482610a83565b602082019050919050565b60006020820190508181036000830152610ae881610aac565b905091905056fea2646970667358221220a0655bb9bb4126f3a48c17fc0c13656f2ab1f0374c137b43e0e2a24f06e01ec564736f6c634300081c0033",
  "linkReferences": {},
  "deployedLinkReferences": {}
}